:100C0C0075A15575A1AA43B98053B9BFE4F5A17577
:100C1C00A15575A1AAE5B954F84405F5B9E4F5A1B7
:010C2C0022A5
:100C2D00EF4E601505A105A105A105A105A105A121
:0A0C3D0005A1EF1F70EA1E80E722F8
:100C5F00AD07AC06ED4C600E7FE87E03120C2DED58
:070C6F001D70F11C80EE2254
:0A0C8D0043C40C43C50C43AA102217
:1009C400C29FD29EC29DC2CDC2CC438780E4750E25
:1009D40082F50DF50CF50B7B0AFAF9F8AF0EAE0DA6
:1009E400AD0CAC0B120644AF038F0FAF0EAE0DADC2
:1009F4000CAC0BE47B0AFAF9F81206448F0E8E0D48
:100A04008D0C8C0BC3E50F9405748094804011EF1A
:100A14002401F50EE43EF50DE43DF50CE43CF50B44
:100A2400E589540F4420F58943C9A0E50EF404F583
:070A34008DD28ED299D29CF5
:010A3B002298
:0A0C970075A15575A1AA43B1102202
:100C760075A15575A1AAEF600543B101800353B173
:070C8600FEE4F5A1F5FF22D9
:030CA8008FFF2299
:060CA10001220001230006
:100BBE00E52264AA7006E523645560037FFF22A236
:100BCE00AF9200C2AF75A15575A1AAEF42B1E4F57F
:060BDE00A1A20092AFFF8E
:010BE40022EE
:100C4700A2AF9200C2AF75A15575A1AAEFF452B138
:070C5700E4F5A1A20092AF39
:010C5E002273
:060A3C00CBEFCBCAEECAAD
:100A4200E52264AA7006E523645560037FFF22CB8A
:100A520054C0CBCACAC3EA94F04009EA94F45004E1
:100A62007C0480027C08CFECCF120BBEEF60037FC8
:100A7200FF228A858B84758F80E4F58EE58630E6C9
:100A8200107586A6E58630E1047D028006E4FD80CD
:0C0A9200027D01CFECCF120C47CFEDCF5E
:010A9E002235
:060A9F00CBEFCBCAEECA4A
:100AA500E52264AA7006E523645560037FFF22C32F
:100AB500EA94F04009EA94F4500479048002790834
:100AC500CFE9CF120BBEEF60037FFF228A858B84AF
:100AD500758F808D8EE58630E61075869AE58630B1
:100AE500E1047C028006E4FC80027C01CFE9CF12A0
:050AF5000C47CFECCF1F
:010AFA0022D9
:0608A7008B0B8F828E8393
:1008AD00E52264AA7006E523645560037FFF22C329
:1008BD00E58394F0400AE58394F4500479048002B2
:1008CD007908AF82EF543FFFCEEFCEC374409EFF49
:1008DD00E50BD39F40037FFC22CFEDCFEF543F6E4E
:1008ED0060037FFB22CFE9CF120BBEEF60037FFFCA
:1008FD0022858385858284E50B2E14F58FCFEDCF70
:10090D008F82CEECCECFCFEEF583E58630E6107537
:10091D00869AE58630E1047A028006E4FA80027A4E
:0A092D0001CFE9CF120C47CFEACF4B
:01093700229D
:0A0AFB008E0B8F0C8B0D8A0E890FF5
:100B0500E4FFFEEF65117003EE65106033850C821E
:100B1500850B83E493AB0DAA0EA90F8F828E8312EA
:100B250005E6E50CF47003E50BF470050FBF000056
:100B350022050CE50C7002050B0FBF00010E80C3EA
:010B4500228D
:030B8A00CCEFCCE1
:100B8D007F04120BBEEF60037FFF22CFECCFEFFB94
:100B9D007585008B84758F808D8E758699E5863071
:100BAD00E1047E028002E4FE7F04120C47CFEECFFB
:010BBD002215
:100B46007585008F8475868DAF8EAE8FE48F0E8E81
:100B56000DF50CF50BAD0CAC0B78101206D68F0EFE
:100B66008E0D8D0C8C0BAF84AE85E50E4FF50EE524
:100B76000D4EF50DE50CF50CE50BF50BAF0EAE0DB8
:030B8600AD0CFCB7
:010B89002249
:1007A300466C617368526F6D2064656D6F2073745E
:1007B300617274202E2E2E0A0044617461466C61AE
:1007C30073682045726173652E2E2E0A0025303220
:1007D30078200A0044617461466C61736820577223
:1007E3006974652E2E2E0A0044617461466C617330
:1007F3006820526561642E2E2E0A007265616C209A
:100803006C656E3A25640A00253032782000457203
:1008130072204F66667365743A253032780A000A8F
:100823000A00436F6465466C6173682045726173A7
:10083300652E2E2E0A00436F6465466C6173682033
:1008430057726974652E2E2E0A00436F6465466CD9
:1008530061736820526561642E2E2E0A00436F6E09
:1008630066696720496E666F726D6174696F6E2089
:10087300526561642E2E2E0A006366673A25303274
:100883007820253032780A00556E697175652049E4
:10089300442E2E2E0A003078256C782000307825DF
:0408A3006C780A0063
:10035F00120C0C7F147E00120C5F1209C47BFF7A03
:10036F000779A3120065E4F509E50964406012748A
:10037F00002509F582E43400F583E509F0050980CD
:10038F00E87522AA7523557E007F407D007B017A98
:10039F000079401206E97BFF7A0779BC1200657F6E
:1003AF00007EF0120A3C8F08EF600E7BFF7A077910
:1003BF00D0750E00F50F1200657BFF7A0779D71203
:1003CF0000657C007D007B407F007EF01208A78FC8
:1003DF0008EF600E7BFF7A0779D0750E00F50F12CC
:1003EF000065E4F522F5237BFF7A0779EB120065B0
:1003FF007B017A0079407510007511407F007EF007
:10040F00120AFB8F0A7BFF7A0779FE750E008F0F9A
:10041F00120065E4F509E509650A60487BFF7A0873
:10042F00790B74402509F582E43400F583E0750EED
:10043F0000F50F12006574002509F582E43400F50C
:10044F0083E0FF74402509F582E43400F583E06F03
:10045F00600E7BFF7A08791185090E12006580FE08
:10046F00050980B27BFF7A0879221200657522AAEE
:10047F007523557E007F407D007B017A0079401205
:10048F0006E97BFF7A0879251200657FC07EEF129F
:10049F000A3C8F08EF600E7BFF7A0779D0750E004C
:1004AF00F50F1200657BFF7A0879391200657C0021
:1004BF007D007B407FC07EEF1208A78F08EF600E94
:1004CF007BFF7A0779D0750E00F50F120065E4F502
:1004DF0022F5237BFF7A08794D1200657B017A00A4
:1004EF0079407510007511407FC07EEF120AFB8FA7
:1004FF000A7BFF7A0779FE750E008F0F120065E4F5
:10050F00F509E509650A60487BFF7A08790B7440A5
:10051F002509F582E43400F583E0750E00F50F121E
:10052F00006574002509F582E43400F583E0FF745B
:10053F00402509F582E43400F583E06F600E7BFF00
:10054F007A08791185090E12006580FE050980B2BF
:10055F007BFF7A0879221200657BFF7A0879601297
:10056F0000657B017A0079407510007511027FFEDE
:10057F007EFF120AFB8F0A7BFF7A0779FE750E004A
:10058F008F0F1200657BFF7A08797C900041E07530
:10059F000E00F50F900040E0751000F51112006588
:1005AF007BFF7A08798B1200657F14120B468F112F
:1005BF008E108D0F8C0E7BFF7A0879991200657F54
:1005CF0010120B468F118E108D0F8C0E7BFF7A0839
:0705DF0079A012006580FE07
:03000000020938BA
:0C093800787FE4F6D8FD75812302097F6A
:1005E600F8BB010DE58229F582E5833AF583E8F04B
:1005F600225006E92582C8F622BBFE05E92582C8F7
:02060600F222DE
:1006080075F008758200EF2FFFEE33FECD33CDCCA9
:1006180033CCC58233C5829BED9AEC99E58298402C
:100628000CF582EE9BFEED9AFDEC99FC0FD5F0D609
:10063800E4CEFBE4CDFAE4CCF9A88222B800C1B933
:100648000059BA002DEC8BF084CFCECDFCE5F0CB71
:10065800F97818EF2FFFEE33FEED33FDEC33FCEBAA
:1006680033FB10D703994004EB99FB0FD8E5E4F965
:10067800FA227818EF2FFFEE33FEED33FDEC33FC52
:10068800C933C910D7059BE99A4007EC9BFCE99A46
:10069800F90FD8E0E4C9FAE4CCFB2275F010EF2F8B
:1006A800FFEE33FEED33FDCC33CCC833C810D7078B
:1006B8009BEC9AE899400AED9BFDEC9AFCE899F8C6
:0E06C8000FD5F0DAE4CDFBE4CCFAE4C8F92259
:1006D600E8600FEFC333FFEE33FEED33FDEC33FC82
:0306E600D8F12226
:10000300E51A240EF8E6051A22780B300702780E5B
:10001300E475F00112076D0207152000EB7F2ED265
:10002300008018EF540F2490D43440D4FF30040BD5
:10003300EF24BFB41A0050032461FFE51B600215CF
:100043001B051EE51E7002051D30070D780BE475B8
:10005300F00112076DEF02075B020BE57403D20791
:100063008003E4C207F51A8B0B8A0C890DE4F51B98
:10007300F51DF51EE51B60077F2012003E80F57518
:100083001CFFC201C200C202C203C205C206C208EB
:1000930012000CFF700D3007057F0012004FAF1EDA
:1000A300AE1D22B4255FC2D5C20412000CFF24D0BA
:1000B300B40A00501A75F00A781B30D50508B6FF4C
:1000C3000106C6A426F620D5047002D20380D924E3
:1000D300CFB41A00EF5004C2E5D20402024FD2019A
:1000E30080C6D20080C0D20280BCD2D580BAD205ED
:1000F30080B47F2012003E2002077401B51B00402C
:10010300F1120003FF12003E020077D208D20680EC
:1001130095120003FB120003FA120003F94A4B7015
:100123000679207A037BFF20022EE51B602A7E00DE
:100133008E8275830012072E60060EEE651C70F02A
:10014300C2D5EBC0E0EAC0E0E9C0E0EE120296D00F
:10015300E0F9D0E0FAD0E0FB120715FF60AAEBC08C
:10016300E0EAC0E0E9C0E012003ED0E02401F9D0AB
:10017300E03400FAD0E0FBE51C0460DCD51CD98038
:10018300877BFF7A027992D202809C791080027970
:1001930008C206C2088008D2D5790A8004790AC247
:1001A300D5E51C047002F51CE4FAFDFEFF12000302
:1001B300FC7B08200113120003FD7B1030000A12A0
:1001C3000003FE120003FF7B20EC3382D592D5504F
:1001D30013C3E43000069FFFE49EFEE42001039D69
:1001E300FDE49CFCE4CBF8C201EC700CCFCECDCC8B
:1001F300E824F8F870F38017C3EF33FFEE33FEED16
:1002030033FDEC33FCEB33FB994002FB0FD8E9EBF6
:10021300300105F8D0E0C448B201C0E00AEC4D4E0D
:100223004F78207B0070C2EAB51C0040BCC0E012CE
:100233000298D0F0D0E0200104C4C0E0C4B201C0F1
:10024300F0120027D0F0D5F0EB02007712077D0102
:100253001453018E5800E54C00E14201924F019A7C
:0F02630044019A4900FA4301A0550184460184E1
:100272004501844703405000E92D00ED2E01102B6B
:1002820000F123010E2003292A00A94800000108D9
:100292003F3F3F00790AA2D5200314300509B91067
:1002A200020404B9080104A2D52006025001042068
:1002B20002689202B51B005034C0E07F203003195F
:1002C2007F30A20272067205500F1202EFC202C202
:1002D20006C205C2087F30800F300503E9C0E01274
:1002E200003E300503D0E0F9D0E0B51BCC30051755
:1002F2007F30B9100C12003E7F583004077F78809F
:1003020003B9080312003E3002057F2D02003E7F32
:10031200202008F87F2B2006F322920280CF286E3D
:10032200756C6C2900D2011200033001F8C2017809
:100332001B30D50108F60200A92D5043495812007E
:10034200032403B405004001E490033B9312002F01
:0D035200743A12002FD203751B0402018EB5
:1006E900EF4E6012EF60010EEDBB010B89828A8328
:1006F900F0A3DFFCDEFA2289F05007F709DFFCA935
:0C070900F022BBFEFCF309DFFCA9F0228B
:1009440002035FE493A3F8E493A34003F68001F267
:1009540008DFF48029E493A3F85407240CC8C333B4
:10096400C4540F4420C8834004F456800146F6DF83
:10097400E4800B0102040810204080900CA1E47E66
:10098400019360BCA3FF543F30E509541FFEE49378
:10099400A360010ECF54C025E060A840B8E493A33F
:1009A400FAE493A3F8E493A3C8C582C8CAC583CA6A
:1009B400F0A3C8C582C8CAC583CADFE9DEE780BE22
:010CA700004C
:10071500BB010689828A83E0225002E722BBFE02E2
:09072500E32289828A83E4932215
:10072E00BB010CE58229F582E5833AF583E0225080
:10073E0006E92582F8E622BBFE06E92582F8E222CA
:0D074E00E58229F582E5833AF583E49322E4
:10075B00BB010689828A83F0225002F722BBFE017D
:02076B00F32277
:10076D00FAE6FB0808E6F925F0F618E6CA3AF6228D
:10077D00D083D082F8E4937012740193700DA3A30B
:10078D0093F8740193F5828883E47374029368601F
:06079D00EFA3A3A380DF1F
:100BE500EFB40A07740D120BF0740A309811A89926
:100BF500B8130CC2983098FDA899C298B811F63070
:070C050099FDC299F5992247
:00000001FF
